S02500004F62737461636C652041766F6964616E636520526F626F742056312E302E73726563FD
S11300000C9431000C9404050C942D050C943C05BF
S11300100C944E000C9425060C944E000C944E0047
S11300200C944E000C9465050C944E000C944E00F8
S11300300C944E000C944E000C944E000C944E0004
S11300400C944E000C944E000C944E000C944E00F4
S11300500C944E00C705D205E805DD05F305FE0541
S1130060090611241FBECFE5D8E0DEBFCDBF11E0E5
S1130070A0E6B0E0E8EAFCE002C005900D92A830EA
S1130080B107D9F721E0A8E0B1E001C01D92AB317E
S1130090B207E1F70E9472020C9452060C9400001D
S11300A080911901813039F58091080190910901FD
S11300B0A0910A01B0910B0189399105A105B105FF
S11300C064F40196A11DB11D809308019093090168
S11300D0A0930A01B0930B010895109208011092A5
S11300E0090110920A0110920B011092190181E08A
S11300F0809316010895823031F580910801909122
S11301000901A0910A01B0910B018E339105A1055B
S1130110B10564F40196A11DB11D8093080190936B
S11301200901A0930A01B0930B01089510920801EC
S11301301092090110920A0110920B0110921901F8
S113014081E080931801089584E10E940A010E94CD
S1130150FE010E941B010E94160680E590E00E94A9
S113016020060E946404089563E081E00E94640212
S113017086E790E00E944E0266E082E00E946402FC
S113018084E890E00E944E02809117018F5F809373
S11301901701089581E0809319018091160181115E
S11301A02FC061E670E084E10E9413018091610038
S11301B0813079F561E670E084E10E941301809159
S11301C06100811126C080916000823059F466E09C
S11301D00E9464028AE890E00E944E0281E08093CB
S11301E0600008958130A9F466E082E00E94640210
S11301F084E890E00E944E0282E0809360000895BB
S1130200813039F410921601809117018F5F809329
S113021017010895883228F462E00E94790280E090
S1130220089581E00895883220F40E94180480E043
S1130230089581E0089561E085E10E94790261E01A
S113024086E10E94790260E082E10E94790260E026
S113025083E10E94790240E063E482E00E94790431
S113026040E063E483E00E9479040895CF93C82FAB
S113027060E081E00E947B0360E082E00E947B03F7
S1130280C4FB662760F984E00E947B03C5FB6627F4
S113029060F985E00E947B03C6FB662760F986E06F
S11302A00E947B036C2F661F6627661F87E00E94EF
S11302B07B0361E083E00E947B0389EF90E0019778
S11302C0F1F700C0000060E083E00E947B0389EF47
S11302D090E00197F1F700C000006C2F617084E09A
S11302E00E947B03C1FB662760F985E00E947B03C3
S11302F0C2FB662760F986E00E947B03C3FB662786
S113030060F987E00E947B0361E083E00E947B0345
S113031089EF90E00197F1F700C0000060E083E00E
S11303200E947B0389EF90E00197F1F700C0000081
S1130330CF910895CF93C82F61E081E00E947B03A1
S113034060E082E00E947B03C4FB662760F984E0DE
S11303500E947B03C5FB662760F985E00E947B034E
S1130360C6FB662760F986E00E947B036C2F661F3C
S11303706627661F87E00E947B0361E083E00E949A
S11303807B0389EF90E00197F1F700C0000060E083
S113039083E00E947B0389EF90E00197F1F700C0AE
S11303A000006C2F617084E00E947B03C1FB662710
S11303B060F985E00E947B03C2FB662760F986E052
S11303C00E947B03C3FB662760F987E00E947B03DE
S11303D061E083E00E947B0389EF90E00197F1F7ED
S11303E000C0000060E083E00E947B0389EF90E09E
S11303F00197F1F700C00000CF91089560E081E01B
S11304000E94790260E082E00E94790260E083E069
S11304100E94790260E084E00E94790260E085E055
S11304200E94790260E086E00E94790260E087E041
S11304300E94790283ED90E30197F1F700C0000078
S113044082E00E94360189EF90E00197F1F700C045
S1130450000088E20E94360189EF90E00197F1F7ED
S113046000C000008CE00E94360189EF90E0019703
S1130470F1F700C0000081E00E94360183EF91E0B3
S11304800197F1F700C0000086E00E94360189EF71
S113049090E00197F1F700C0000008950F931F93B7
S11304A0CF93FC018081882359F08F01C0E00E9422
S11304B09A01CF5FF801EC0FF11D80818111F7CF14
S11304C0CF911F910F910895813029F480E8860F10
S11304D00E9436010895823021F480EC860F0E9438
S11304E0360108950E94A4000E94B4000E94CA002C
S11304F0FDCF982F969596959695953008F0F9C06E
S11305008770613031F008F4A4C0623009F451C03E
S1130510EFC09130C1F028F0923039F19330B9F145
S1130520E7C04AB321E030E0B90102C0660F771F8B
S11305308A95E2F7CB018095942F98239ABB9BB3BD
S113054089238BBBD5C047B321E030E0B90102C099
S1130550660F771F8A95E2F7CB018095942F982335
S113056097BB98B3892388BBC3C044B321E030E070
S1130570B90102C0660F771F8A95E2F7CB01809517
S1130580942F982394BB95B3892385BBB1C041B301
S113059021E030E0B90102C0660F771F8A95E2F7C7
S11305A0CB018095942F982391BB92B3892382BB6E
S11305B09FC09130C1F028F0923039F19330B9F1F5
S11305C097C04AB321E030E0B90102C0660F771F3B
S11305D08A95E2F7CB01962F909594239ABB9BB30F
S11305E0892B8BBB85C047B321E030E0B90102C041
S11305F0660F771F8A95E2F7CB01962F9095942387
S113060097BB98B3892B88BB73C044B321E030E017
S1130610B90102C0660F771F8A95E2F7CB01962FC6
S11306209095942394BB95B3892B85BB61C041B34A
S113063021E030E0B90102C0660F771F8A95E2F726
S1130640CB01962F9095942391BB92B3892B82BBB7
S11306504FC09130C1F028F0923039F19330B9F1A4
S113066047C04BB321E030E0B90102C0660F771FE9
S11306708A95E2F7CB01962F909594239BBB9AB36E
S1130680892B8ABB35C048B321E030E0B90102C0F0
S1130690660F771F8A95E2F7CB01962F90959423E6
S11306A098BB97B3892B87BB23C045B321E030E0C7
S11306B0B90102C0660F771F8A95E2F7CB01962F26
S11306C09095942395BB94B3892B84BB11C042B3FA
S11306D021E030E0B90102C0660F771F8A95E2F786
S11306E0CB01962F9095942392BB91B3892B81BB18
S11306F0089582E00895982F96959695969595304D
S113070008F08EC0633008F08DC08770613009F046
S113071040C09130A1F028F09230F9F0933059F1B3
S113072083C04BB321E030E0B90102C0660F771FEC
S11307308A95E2F7CB01842B8BBB80E0089548B304
S113074021E030E0B90102C0660F771F8A95E2F715
S1130750CB01842B88BB80E0089545B321E030E0D1
S1130760B90102C0660F771F8A95E2F7CB01842B8B
S113077085BB80E0089542B321E030E0B90102C0B6
S1130780660F771F8A95E2F7CB01842B82BB80E04A
S11307900895611144C09130A9F028F0923009F114
S11307A0933071F143C04BB321E030E0B90102C092
S11307B0660F771F8A95E2F7CB01809584238BBB64
S11307C080E0089548B321E030E0B90102C0660F2B
S11307D0771F8A95E2F7CB018095842388BB80E05C
S11307E0089545B321E030E0B90102C0660F771FD8
S11307F08A95E2F7CB018095842385BB80E0089538
S113080042B321E030E0B90102C0660F771F8A9538
S1130810E2F7CB018095842382BB80E0089508959C
S113082082E0089583E0089580E0089580E00895CB
S1130830982F969596959695953008F041C08770B7
S11308409130A1F028F09230F9F0933059F13AC088
S113085029B330E0A90102C0559547958A95E2F77E
S1130860CA018170FB01808380E0089526B330E0E3
S1130870A90102C0559547958A95E2F7CA0181708E
S1130880FB01808380E0089523B330E0A90102C016
S1130890559547958A95E2F7CA018170FB018083DB
S11308A080E0089520B330E0A90102C05595479532
S11308B08A95E2F7CA018170FB01808380E0089584
S11308C082E0089580E008950F931F93CF93DF9300
S11308D0C2E6D0E006E710E0698188810E947902CF
S11308E02296C017D107C1F7DF91CF911F910F91C5
S11308F00895623459F118F4613441F00895633471
S113090009F444C0643409F460C0089541110EC070
S11309104BB321E030E0B90102C0660F771F8A951E
S1130920E2F7CB01809584238BBB0895413009F015
S11309306AC04BB321E030E0B90102C0660F771FF3
S11309408A95E2F7CB01842B8BBB089541110EC02D
S113095048B321E030E0B90102C0660F771F8A95E1
S1130960E2F7CB018095842388BB0895413009F0D8
S11309704AC048B321E030E0B90102C0660F771FD6
S11309808A95E2F7CB01842B88BB089541110EC0F0
S113099045B321E030E0B90102C0660F771F8A95A4
S11309A0E2F7CB018095842385BB0895413059F546
S11309B045B321E030E0B90102C0660F771F8A9584
S11309C0E2F7CB01842B85BB089541110EC042B3DD
S11309D021E030E0B90102C0660F771F8A95E2F783
S11309E0CB018095842382BB0895413061F442B3E6
S11309F021E030E0B90102C0660F771F8A95E2F763
S1130A00CB01842B82BB08951F920F920FB60F92D5
S1130A1011242F933F934F935F936F937F938F93FF
S1130A209F93AF93BF93EF93FF93E0910F01F091E6
S1130A301001309709F00995FF91EF91BF91AF91A3
S1130A409F918F917F916F915F914F913F912F91E2
S1130A500F900FBE0F901F9018951F920F920FB614
S1130A600F9211248F9381E080930C018F910F904A
S1130A700FBE0F901F9018951F920F920FB60F92F2
S1130A8011242F933F934F935F936F937F938F938F
S1130A909F93AF93BF93EF93FF93E0910D01F09178
S1130AA00E01309709F00995FF91EF91BF91AF9135
S1130AB09F918F917F916F915F914F913F912F9172
S1130AC00F900FBE0F901F9018951F920F920FB6A4
S1130AD00F9211242F933F934F935F936F937F93C0
S1130AE08F939F93AF93BF93EF93FF93E091130181
S1130AF0F0911401309709F00995FF91EF91BF919E
S1130B00AF919F918F917F916F915F914F913F91A1
S1130B102F910F900FBE0F901F9018958091050193
S1130B208130F1F028F0823099F0843049F020C00F
S1130B3085B58F7B85BD85B5877F85BD84E00895A8
S1130B4085B5806485BD85B5877F85BD84E00895BE
S1130B5085B58F7B85BD85B5886085BD84E00895A6
S1130B6085B5806485BD85B5886085BD84E00895BC
S1130B7081E00895E09106018E2F90E08730910581
S1130B8008F052C0FC01E65DFF4F0C944C0685B59D
S1130B90816085BD85B58D7F85BD85B58B7F85BD20
S1130BA084E0089585B5826085BD85B58E7F85BD59
S1130BB085B58B7F85BD84E0089585B5816085BD4D
S1130BC085B5826085BD85B58B7F85BD84E008953C
S1130BD085B5846085BD85B58D7F85BD85B58E7FE2
S1130BE085BD84E0089585B5816085BD85B58D7F1B
S1130BF085BD85B5846085BD84E0089585B5846030
S1130C0085BD85B58E7F85BD85B5826085BD84E053
S1130C10089585B5816085BD85B5826085BD85B53E
S1130C20846085BD84E0089580E00895789489B750
S1130C30806489BF0E948E0514BC0E94BA05089581
S1130C40909312018093110108951F920F920FB691
S1130C500F9211242F933F934F935F936F937F933E
S1130C608F939F93AF93BF93EF93FF93E091110101
S1130C70F09112010995FF91EF91BF91AF919F916E
S1130C808F917F916F915F914F913F912F910F9031
S1130C900FBE0F901F901895EE0FFF1F0590F49153
S10B0CA0E02D0994F894FFCF44
S1130CA8020108000000120000000000000000001B
S1130CB8000000000000536574204465662E20522D
S1130CC86F742E005269676874004C65667420005E
S1130CD853706565643A333025204469723A204676
S1130CE800446973742E3A2000636D00537065657F
S1130CF8643A353025204469723A204600537065B9
S1130D0865643A333025204469723A20530053709D
S1130D186565643A333025204469723A2052005399
S1130D28706565643A333025204469723A204C0072
S1130D3853706565643A333025204469723A204219
S10B0D48000006000000060093
S9030000FC
